:03000000020133C7
:0C013300787FE4F6D8FD75811D02017A8A
:09005A001202A2120268D2AF22C8
:10020200E4F518F519F51A12005A1200030519E55A
:100212001970020518AE18FFE4FCFD7B507AC3F991
:10022200F8C31201EC70E3E51A70081202BF751AE6
:100232000180061202C2E4F51AE4F518F51980CA23
:0702A20053B1FB43B204223B
:0302BF00D2B22296
:0302C200C2B222A3
:0602A9000115010108002F
:04007F00438F402249
:0402B700538FBF2280
:0A029000538EF0438E0443AF0422A6
:0402BB00538EEF224D
:08029A008FD68DD7438E102290
:1002680012007F1202901202BB751001E4F50FF51F
:0602780014F512D2B122C0
:0300830002024234
:10024200C0D075D000C005C007751201750F0075CA
:1002520016007511007DA07FFC12029A1202B7D01F
:0602620007D005D0D032E8
:100066008F13E4F517F510751401C2B17DC07FFD3D
:0900760012029AE510B401FB220C
:10027E00E510600DE50FB40108AF11120066E4F54C
:02028E000F223D
:0300630002008612
:10008600C0E0C0D075D000C000C005C007E5126052
:1000960067E51670181202BBE511C313F51130B0EF
:1000A600034311807DC07FFD12029A8047E51664E6
:1000B6000870351202BB12007FF512750F01E515A7
:1000C6006032E51164556004E508600AAF0805086A
:1000D60074092FF8A611E508B40619750800E50E8F
:1000E600B4FF11751500800CE511C313F51130B07E
:1000F600034311800516802AE5146026E517B40827
:1001060004D2B1801BE517B4090B1202BB751400AB
:10011600751001800BE5131392B1E513C313F513A4
:0D0126000517D007D005D000D0D0D0E032B2
:0702B00053B1F743B208222D
:0302C500D2B3228F
:0302C800C2B3229C
:04000300E51570523D
:10000700FB7A007909F51B8A1C891D9000011201F2
:10001700BF642060028036AB1BAA1CA91D9000029A
:100027001201BF6440600280249000031201BF6484
:1000370002600280189000041201BFFEB401067529
:1000470015017F0122EE7005751501FF2275150157
:020057007F0028
:010059002284
:10013F00020202E493A3F8E493A34003F68001F2D2
:10014F0008DFF48029E493A3F85407240CC8C333C1
:10015F00C4540F4420C8834004F456800146F6DF90
:10016F00E4800B01020408102040809002A9E47E75
:10017F00019360BCA3FF543F30E509541FFEE49385
:10018F00A360010ECF54C025E060A840B8E493A34C
:10019F00FAE493A3F8E493A3C8C582C8CAC583CA77
:1001AF00F0A3C8C582C8CAC583CADFE9DEE780BE2F
:0102AF00004E
:1001BF00BB010CE58229F582E5833AF583E02250F5
:1001CF0006E92582F8E622BBFE06E92582F8E2223F
:0D01DF00E58229F582E5833AF583E4932259
:1001EC00EB9FF5F0EA9E42F0E99D42F0EC6480C88A
:0601FC0064809845F0222A
:00000001FF
