:03000000020133C7
:0C013300787FE4F6D8FD75811F02017A88
:0C02D70012030112004C1202F8D2AF22F8
:10026A00E4F518F519F51A1202D71201BFEF24FEA8
:0F027A0060080470F512031080F012031380EB7C
:0703010053B1FB43B20422DB
:03031000D2B22244
:03031300C2B22251
:0602E300011501010800F5
:04007F00438F402249
:04030800538FBF222E
:0A02EE00538EF0438E0443AF042248
:04030C00538EEF22FB
:080003008FD68DD7438E102229
:10004C0012007F1202EE12030C751001E4F50FF58D
:06005C0014F512D2B122DE
:0300830002024432
:10024400C0D075D000C005C007751201750F0075C8
:1002540016007511007DA07FFC120003120308D064
:0602640007D005D0D032E6
:100066008F13E4F517F510751401C2B17DC07FFD3D
:09007600120003E510B401FB22A5
:1002A700E510600DE50FB40108AF11120066E4F523
:0202B7000F2214
:0300630002008612
:10008600C0E0C0D075D000C000C005C007E5126052
:1000960067E516701812030CE511C313F51130B09D
:1000A600034311807DC07FFD1200038047E516647F
:1000B60008703512030C12007FF512750F01E51555
:1000C6006032E51164556004E508600AAF0805086A
:1000D60074092FF8A611E508B40619750800E50E8F
:1000E600B4FF11751500800CE511C313F51130B07E
:1000F600034311800516802AE5146026E517B40827
:1001060004D2B1801BE517B4090B12030C75140059
:10011600751001800BE5131392B1E513C313F513A4
:0D0126000517D007D005D000D0D0D0E032B2
:0402E900021E0000F1
:1002B900438E805389F0758CFD758AD7D2A9C28C7B
:0102C9002212
:0902F80053B1F743B2080202B948
:03000B000202CA24
:0D02CA00C0E0051FE51F7002051ED0E032E8
:10028900E4F51EF51F758CFD758AD7D28CEFB51F65
:0E02990007E4B51E03D38001C350F2C28C22CD
:10000E00E4FDFCD2B37F05120289C2B37FBC12029B
:10001E00890DBD00010CED640A4C70E77F301202B1
:10002E0089E4FCFDD2B37F12120289C2B37FB612ED
:0D003E0002890DBD00010CED640A4C70E755
:01004B002292
:0401BF00E51570537F
:1001C300FB7A007909F51B8A1C891D900001120234
:1001D30017642060028037AB1BAA1CA91D90000284
:1001E3001202176440600280259000031202176414
:1001F3000260028019900004120217FEB401067512
:1002030015017F0122EE70067515017F0222751517
:03021300017F0068
:0102160022C5
:10013F0002026AE493A3F8E493A34003F68001F26A
:10014F0008DFF48029E493A3F85407240CC8C333C1
:10015F00C4540F4420C8834004F456800146F6DF90
:10016F00E4800B01020408102040809002E3E47E3B
:10017F00019360BCA3FF543F30E509541FFEE49385
:10018F00A360010ECF54C025E060A840B8E493A34C
:10019F00FAE493A3F8E493A3C8C582C8CAC583CA77
:1001AF00F0A3C8C582C8CAC583CADFE9DEE780BE2F
:0102ED000010
:10021700BB010CE58229F582E5833AF583E022509C
:1002270006E92582F8E622BBFE06E92582F8E222E6
:0D023700E58229F582E5833AF583E4932200
:00000001FF
